{
  "contractName": "Directory",
  "abi": [
    {
      "constant": true,
      "inputs": [
        {
          "name": "",
          "type": "address"
        }
      ],
      "name": "Doctors",
      "outputs": [
        {
          "name": "",
          "type": "bool"
        }
      ],
      "payable": false,
      "stateMutability": "view",
      "type": "function"
    },
    {
      "inputs": [],
      "payable": false,
      "stateMutability": "nonpayable",
      "type": "constructor"
    },
    {
      "anonymous": false,
      "inputs": [
        {
          "indexed": false,
          "name": "_message",
          "type": "string"
        }
      ],
      "name": "LogDoctor",
      "type": "event"
    },
    {
      "constant": false,
      "inputs": [
        {
          "name": "_doctor",
          "type": "address"
        }
      ],
      "name": "addDoctor",
      "outputs": [],
      "payable": false,
      "stateMutability": "nonpayable",
      "type": "function"
    },
    {
      "constant": false,
      "inputs": [
        {
          "name": "_doctor",
          "type": "address"
        }
      ],
      "name": "removeDoctor",
      "outputs": [],
      "payable": false,
      "stateMutability": "nonpayable",
      "type": "function"
    }
  ],
  "bytecode": "0x608060405234801561001057600080fd5b50336000806101000a81548173ffffffffffffffffffffffffffffffffffffffff021916908373ffffffffffffffffffffffffffffffffffffffff160217905550610496806100606000396000f300608060405260043610610057576000357c0100000000000000000000000000000000000000000000000000000000900463ffffffff1680634780468f1461005c57806398fc90e91461009f578063dc7aa36b146100e2575b600080fd5b34801561006857600080fd5b5061009d600480360381019080803573ffffffffffffffffffffffffffffffffffffffff16906020019092919050505061013d565b005b3480156100ab57600080fd5b506100e0600480360381019080803573ffffffffffffffffffffffffffffffffffffffff1690602001909291905050506102c3565b005b3480156100ee57600080fd5b50610123600480360381019080803573ffffffffffffffffffffffffffffffffffffffff16906020019092919050505061044a565b604051808215151515815260200191505060405180910390f35b6000809054906101000a900473ffffffffffffffffffffffffffffffffffffffff1673ffffffffffffffffffffffffffffffffffffffff163373ffffffffffffffffffffffffffffffffffffffff16141515610201576040517f08c379a000000000000000000000000000000000000000000000000000000000815260040180806020018281038252601a8152602001807f4f6e6c79206f776e65722063616e2061646420446f63746f727300000000000081525060200191505060405180910390fd5b60018060008373ffffffffffffffffffffffffffffffffffffffff1673ffffffffffffffffffffffffffffffffffffffff16815260200190815260200160002060006101000a81548160ff0219169083151502179055507f1ecc8d9c1366820fbf8dcf71f6a554487861501dc716801e9b868565034e879260405180806020018281038252600d8152602001807f446f63746f722041646465642e0000000000000000000000000000000000000081525060200191505060405180910390a150565b6000809054906101000a900473ffffffffffffffffffffffffffffffffffffffff1673ffffffffffffffffffffffffffffffffffffffff163373ffffffffffffffffffffffffffffffffffffffff16141515610387576040517f08c379a000000000000000000000000000000000000000000000000000000000815260040180806020018281038252601a8152602001807f4f6e6c79206f776e65722063616e2061646420446f63746f727300000000000081525060200191505060405180910390fd5b6000600160008373ffffffffffffffffffffffffffffffffffffffff1673ffffffffffffffffffffffffffffffffffffffff16815260200190815260200160002060006101000a81548160ff0219169083151502179055507f1ecc8d9c1366820fbf8dcf71f6a554487861501dc716801e9b868565034e879260405180806020018281038252600f8152602001807f446f63746f722052656d6f7665642e000000000000000000000000000000000081525060200191505060405180910390a150565b60016020528060005260406000206000915054906101000a900460ff16815600a165627a7a72305820fdc859dba5020d0beeecf8c878fb4bd5326869e448e88d6c99d8a7b7e686bf3b0029",
  "source": "pragma solidity ^0.4.17;\n\ncontract Directory {\n\n    address private owner;\n    mapping (address => bool) public Doctors;\n\n    modifier onlyOwner() {\n        require( msg.sender==owner, \"Only owner can add Doctors\"); \n        _;  \n    }\n\n    event LogDoctor(string _message);\n\n    constructor(){\n        owner = msg.sender;\n    }\n\n    function addDoctor(address _doctor) public onlyOwner{\n        Doctors[_doctor] = true;\n        emit LogDoctor(\"Doctor Added.\");\n    }\n\n    function removeDoctor(address _doctor) public onlyOwner{\n        Doctors[_doctor] = false;\n        emit LogDoctor(\"Doctor Removed.\");\n    }\n}\n",
  "sourcePath": "/Users/AndyPunk/Documents/Consensys/uport-attest/contracts/Directory.sol",
  "compiler": {
    "name": "solc",
    "version": "0.4.24+commit.e67f0147.Emscripten.clang"
  },
  "schemaVersion": "2.0.1",
  "updatedAt": "2018-09-23T08:24:21.759Z"
}